:100000000C9462000C949A0F0C94730F0C948A0059
:100010000C948A000C948A000C948A000C948A0038
:100020000C948A000C948A000C948A000C94E10FC2
:100030000C948A000C944B020C948A000C948A0055
:100040000C94170F0C948A000C94E50D0C94BF0DC2
:100050000C948A000C948A000C948A000C948A00F8
:100060000C94A2100C948A000000000024002700C9
:100070002A0000000000250028002B0000000008D6
:10008000000201000003040700000000000000005F
:1000900000000000230026002900040404040404D6
:1000A0000404020202020202030303030303010227
:1000B00004081020408001020408102001020408F6
:1000C0001020692311241FBECFEFD8E0DEBFCDBFC3
:1000D00013E0A0E0B1E0ECE5FFE402C005900D9272
:1000E000A03DB107D9F726E0A0EDB3E001C01D9215
:1000F000A934B207E1F710E0C2E6D0E004C02197CE
:10010000FE010E94A127C136D107C9F70E9406153A
:100110000C94AC270C940000E091D6038091D50399
:10012000E81730F4F0E0EC58FB4F808190E0089540
:100130008FEF9FEF08959091D6038091D503981784
:1001400050F4E92FF0E0EC58FB4F208130E09F5F46
:100150009093D60302C02FEF3FEFC901089580911D
:10016000D50390E02091D603821B9109089508954C
:1001700080E090E008950895CF93DF9321E02093ED
:10018000F2032091D50330E04091D603241B3109BE
:10019000992728173907A4F0C0E09091D5038091E2
:1001A000D603981769F0D1E0DC0F82EA95E00E944F
:1001B0009B00EC2FF0E0E152FC4F8083CD2FEDCF80
:1001C000DF91CF9108950895CF93DF9300D0CDB7FD
:1001D000DEB7CB01642F49835A830E94D011498135
:1001E000842F5A81952F0F900F90DF91CF91089512
:1001F000CF93DF931F92CDB7DEB7698361E0CE0165
:1002000001960E94D01181E090E00F90DF91CF9194
:1002100008958F929F92AF92BF92EF92FF920F93A9
:100220001F93CF93DF938FE6E82EF12CF701108216
:10023000F8948BE492E00E94381380910A04909124
:100240000B040E94641388E592E00E9438130EE1CB
:1002500016E0F801638D748D858D968D0E943A139A
:1002600083E692E00E943813F801638D748D858DCA
:10027000968D0E946E2620E030E040E252E40E941B
:10028000C4254B015C0142E00E94641284E792E0C5
:100290000E94381320E030E040E752E4C501B40189
:1002A0000E9423279B01AC010E94532542E00E943B
:1002B00064128CE792E00E94561281E892E00E945C
:1002C000381380910E0490910F040E94641388E506
:1002D00092E00E943813CFEFD5E06B8D7C8D8D8D31
:1002E0009E8D0E943A1383E692E00E9438136B8D34
:1002F0007C8D8D8D9E8D0E946E2620E030E040E248
:1003000052E40E94C4254B015C0142E00E94641249
:1003100084E792E00E94381320E030E040E752E4A6
:10032000C501B4010E9423279B01AC010E94532503
:1003300042E00E9464128CE792E00E945612F8019B
:10034000138E148E158E168E1B8E1C8E1D8E1E8E79
:10035000789489E091E090930B0180930A0181E009
:10036000F7018083DF91CF911F910F91FF90EF9064
:10037000BF90AF909F908F900895CF93DF93EC0143
:100380008A819B8182309105F1F00397F1F081E041
:100390008E8B0E94AC0E6A877B878C879D87698DC8
:1003A0007A8D8A819B818230910521F0039721F01B
:1003B0008FEF03C080E001C081E042E050E0DF91B8
:1003C000CF910C94C10F80E001C081E00E94610FC9
:1003D000DECF8FEF95E00C94BD018EE196E00C949A
:1003E000BD010F931F93CF93DF93EC018A819B8113
:1003F0008230910509F441C0039709F440C08E8909
:10040000882329F10E94AC0E0A851B852C853D8529
:10041000DC01CB01801B910BA20BB30B8A8B9B8B56
:10042000AC8BBD8B1E8A0E851F85288939890817DC
:1004300019072A073B0758F48B8D9C8DAD8DBE8D17
:100440000196A11DB11D8B8F9C8FAD8FBE8F6F89C3
:10045000788D8A819B818230910521F0039721F06C
:100460008FEF03C080E001C081E043E050E0DF9106
:10047000CF911F910F910C94C10F80E001C081E0DA
:100480000E94610FBCCF8FEF95E00C94F1018EE1DB
:1004900096E00C94F1011F920F920FB60F92112467
:1004A0002F933F934F935F936F937F938F939F937C
:1004B000AF93BF93EF93FF93E0910A01F0910B018B
:1004C0000995FF91EF91BF91AF919F918F917F918E
:1004D0006F915F914F913F912F910F900FBE0F90B1
:1004E0001F9018952F923F924F925F926F927F923A
:1004F0008F929F92AF92BF92CF92DF92EF92FF9234
:100500000F931F93CF93DF93CDB7DEB72B970FB623
:10051000F894DEBF0FBECDBF80E090E00E947C1358
:100520006CE271E080E090E00E94D10E8FE892E0F2
:100530000E94561281E089839AE598871986EAE538
:10054000EE831F82812C912C540124013501212C32
:10055000D12CFAE7FC8384EC8D83312CC12C9AE7F3
:100560009A83E4ECEB831B861A868A859B850E941E
:100570007C136EE170E080E090E00E94D10E0E945A
:100580000014E090DA05F090DB050091DC05109195
:10059000DD058A859B850E94641381ED91E00E94B0
:1005A000381342E0B701C8010E9464128AEA92E05F
:1005B0000E9456128A859B859701A8018A3591056C
:1005C000CCF0C301B2010E9453252B013C01232D25
:1005D0003C2D4A815B81B701C8010E941E27181675
:1005E0000CF59A859E83EB85EF833E2CCF2C0A83F6
:1005F0001B8318C0C501B4010E9453254B015C0147
:10060000222D3D2D4C815D81B701C8010E941E271E
:10061000181644F4FA85F8878B8589872E2CDF2CF1
:100620000C831D8320910501309106014091070143
:1006300050910801B701C8010E94BF2587FF10C073
:10064000C701D8018093050190930601A09307018B
:10065000B0930801EA85FB85F093F603E093F50378
:10066000F981FF2331F08A859B850F969B878A87C6
:1006700005C0EA85FB853F97FB87EA878A859B85CE
:10068000853B910504F597FF26C09981911121C002
:10069000A5019401C301B2010E941E2718160CF592
:1006A000832D9C2DAA81BB8180932B0190932C01DB
:1006B000A0932D01B0932E01FE81F09372048F81DF
:1006C0008093730420C01982E4EBF0E0FB87EA8793
:1006D00002C01B861A868091F203882309F445CF55
:1006E000D7CF822D9D2DAC81BD8180932B0190931E
:1006F0002C01A0932D01B0932E0198859093720444
:10070000E985E093730480917204909173040E94D0
:10071000641381ED91E00E94381360912B01709178
:100720002C0180912D0190912E0142E00E946412D3
:1007300081ED91E00E94381342E0C301B2010E94B2
:10074000641281ED91E00E94381342E0C501B401CA
:100750000E94641281EB92E00E9403128091F503E3
:100760009091F6030E94641381ED91E00E9438138A
:100770006091050170910601809107019091080137
:1007800042E00E94641281EB92E00E9403128AE52B
:1007900090E00E947C1384EB92E02B960FB6F894C5
:1007A000DEBF0FBECDBFDF91CF911F910F91FF90A4
:1007B000EF90DF90CF90BF90AF909F908F907F9001
:1007C0006F905F904F903F902F900C945612CF9265
:1007D000DF92EF92FF92CF93DF93C090EC05D09021
:1007E000ED05E090EE05F090EF0510927004909109
:1007F000160180916F04992309F4B0C08823A1F0F9
:1008000088E290E00E947C136FE070E080E090E06E
:100810000E94D10E0E94001460932701709328015A
:100820008093290190932A0181E490E00E947C1337
:100830006FE070E080E090E00E94D10E0E94001412
:1008400060932301709324018093250190932601E6
:100850008091D805882319F081E080937004D091AD
:10086000D705C091D9058AE590E00E947C136FE01E
:1008700070E080E090E00E94D10E0E94001460932E
:100880001F01709320018093210190932201809198
:10089000D805882319F081E0809370048091D705F2
:1008A0008111D1E08091D9058111C1E083E790E009
:1008B0000E947C136FE070E080E090E00E94D10E17
:1008C0000E94001460931B0170931C0180931D0112
:1008D00090931E018091D805882319F081E08093C0
:1008E00070048091D7058111D1E08091D9058111E3
:1008F000C1E08CE890E00E947C136FE070E080E043
:1009000090E00E94D10E8091F0059091F105A091A8
:10091000F205B091F3058093EC059093ED05A0935B
:10092000EE05B093EF050E940014609317017093D9
:1009300018018093190190931A018091D7058111B4
:10094000D1E08091D9058111C1E0D093D705C09342
:10095000D905109216018CE890E0B0C08823A1F070
:100960008CE890E00E947C136FE070E080E090E003
:100970000E94D10E0E940014609317017093180119
:100980008093190190931A0183E790E00E947C13F1
:100990006FE070E080E090E00E94D10E0E940014B1
:1009A00060931B0170931C0180931D0190931E01A5
:1009B0008091D805882319F081E080937004D0914C
:1009C000D705C091D9058AE590E00E947C136FE0BD
:1009D00070E080E090E00E94D10E0E9400146093CD
:1009E0001F01709320018093210190932201809137
:1009F000D805882319F081E0809370048091D70591
:100A00008111D1E08091D9058111C1E081E490E0AC
:100A10000E947C136FE070E080E090E00E94D10EB5
:100A20000E94001460932301709324018093250198
:100A3000909326018091D805882319F081E0809356
:100A400070048091D7058111D1E08091D905811181
:100A5000C1E088E290E00E947C136FE070E080E0EB
:100A600090E00E94D10E8091F0059091F105A09147
:100A7000F205B091F3058093EC059093ED05A093FA
:100A8000EE05B093EF050E94001460932701709368
:100A900028018093290190932A018091D705811123
:100AA000D1E08091D9058111C1E0D093D705C093E1
:100AB000D90581E08093160188E290E02091D70566
:100AC00020936F04C092EC05D092ED05E092EE0504
:100AD000F092EF05DF91CF91FF90EF90DF90CF90F4
:100AE0000895CF92DF92EF92FF922CE53FE842E823
:100AF0005FE30E94C4256B017C0120E030E0A90186
:100B00000E941E2720E030E040E05FE387FD05C043
:100B1000C701B6010E94532504C0C701B6010E9457
:100B200052250E9436267093F4036093F303FF90DE
:100B3000EF90DF90CF9008958F929F92AF92BF92E7
:100B4000CF92DF92EF92FF927C016091020170914F
:100B50000301072E000C880B990B0E946E264B0197
:100B60005C01B701FF0C880B990B0E946E2620E0F8
:100B700030E044EB53E40E94C4259B01AC01C50165
:100B8000B4010E9423276B017C0120E030E0A90121
:100B90000E941E2720E030E040E05FE387FD05C0B3
:100BA000C701B6010E94532504C0C701B6010E94C7
:100BB00052250E94362670936E0460936D04FF9058
:100BC000EF90DF90CF90BF90AF909F908F9008955F
:100BD000CF93DF938B35910554F021E030E03093D3
:100BE000F8032093F703EC01CA55D1090AC022E0AB
:100BF00030E03093F8032093F703CAE5D0E0C81B38
:100C0000D90BCE010E949C05CE01DF91CF910895B2
:100C1000CF93DF93EC016F89788D8A819B8182303D
:100C2000910521F0039721F08FEF03C080E001C010
:100C300081E043E050E00E94C10F0E94AC0E6A8741
:100C40007B878C879D871B8E1C8E1D8E1E8EDF9151
:100C5000CF910895FC01828193818230910521F02A
:100C6000039729F481E001C080E00C94610F08959E
:100C70000F931F93CF93DF938C01EB01452B39F436
:100C800061E0FC0182810E94400E60E006C060E0ED
:100C9000FC0182810E94400E61E0F80184810E9483
:100CA000400EF8010081118161E0802F0E94700EDA
:100CB000209709F447C0CF3FD10509F445C0F8019A
:100CC000FF27E458FF4FE491E330F9F048F4E130B6
:100CD000B9F0E230A1F584B5806284BDC8BD38C0EA
:100CE000E730E9F0E83019F1E43049F5809180000F
:100CF000806280938000D0938B00C0938A0028C0CC
:100D000084B5806884BDC7BD23C0809180008068A1
:100D100080938000D0938900C093880019C080918F
:100D2000B00080688093B000C093B30011C0809180
:100D3000B00080628093B000C093B40009C0C03896
:100D4000D10514F460E001C061E0802F0E94400EE4
:100D5000DF91CF911F910F910895CF92DF92EF9283
:100D6000FF920F931F93CF93DF93209113012111D3
:100D700003C022E030E002C021E030E060916D0469
:100D800070916E04039749F0629FA001639F500D1C
:100D9000729F500D1124EA0105C0EB01CC0FDD1F3D
:100DA00047E150E080911401882309F456C0F8947B
:100DB0001092390610923A0610923B0610923C06A9
:100DC00010921A0610921B0610921C0610921D0615
:100DD000789401E010E0C1E0D0E06A01550FEE0820
:100DE000FF088091390690913A06A0913B06B09198
:100DF0003C06C816D906EA06FB066CF04091610471
:100E000050916204609165047091660483E496E0F9
:100E10000E94380602C0C0E0D0E080911A0690918E
:100E20001B06A0911C06B0911D06C816D906EA063D
:100E3000FB06CCF140915F04509160046091630423
:100E4000709164048DE396E00E943806209749F67D
:100E5000012B71F101E010E0C4CF40916104509189
:100E60006204609165047091660483E496E00E94D8
:100E7000380640915F045091600460916304709162
:100E800064048DE396E00E943806BE01DD0F880BF6
:100E9000990BDF91CF911F910F91FF90EF90DF9011
:100EA000CF900C94D10E209719F000E010E099CF6C
:100EB000DF91CF911F910F91FF90EF90DF90CF9036
:100EC0000895CF92DF92EF92FF92CF93DF936B0161
:100ED0007C01C091F703D091F803C230D10509F429
:100EE00097C034F4209791F0219709F45BC04EC16C
:100EF000C430D10509F4F8C00CF4C5C0259709F039
:100F000045C189E093E00E9456122CC18FEC92E01B
:100F10000E94561280911301882321F0C0910A0487
:100F2000D0910B04D0936604C0936504882329F004
:100F3000E0900E04F0900F0404C0E0900E01F090D9
:100F40000F01F0926404E092630410926204109224
:100F500061041092600410925F0440E050E060E091
:100F600070E083E496E00E94380640E050E060E0E4
:100F700070E08DE396E00E94380662E370E080E066
:100F800090E00E94D10E40E050E0BE0183E496E084
:100F90000E94380640E050E0B7018DE396E00E94E1
:100FA0003806F4C088ED92E00E94381380916D04F9
:100FB00090916E040E946A1380911301882329F096
:100FC00020910A0430910B0404C020910C0130914F
:100FD0000D013093660420936504882329F0209145
:100FE0000E0430910F0404C020910E0130910F01C6
:100FF000309364042093630490E0909362048093A0
:1010000061041092600410925F0481E090E038C0A7
:1010100085EE92E00E94381380916D0490916E04E9
:101020000E946A1380911301882329F020910A04F9
:1010300030910B0404C020910C0130910D013093CC
:10104000660420936504882329F020910E043091D2
:101050000F0404C020910E0130910F0130936404FD
:101060002093630421E0282730E03093620420932A
:10107000610490E09093600480935F0482E090E0CC
:101080000E94AD066FC083EF92E00E9456128091DD
:101090001301882329F020910A0430910B0404C025
:1010A00020910C0130910D0130936604209365046A
:1010B000882329F080910E0490910F0404C0809140
:1010C0000E0190910F019093640480936304109239
:1010D00062041092610481E090E090936004809338
:1010E0005F0483E090E0CCCF80E093E00E94561252
:1010F00040911301442329F060910A0470910B047C
:1011000002C060E070E0709366046093650444235D
:1011100029F0C0910E04D0910F0404C0C0910E01BB
:10112000D0910F01D0936404C093630450E05093B6
:1011300062044093610481E090E0909360048093A6
:101140005F0483E496E00E94380641E050E0BE016F
:101150008DE396E00E9438066CE271E080E090E05A
:101160000E94D10E40E050E060E070E083E496E041
:101170000E94380640E050E060E070E08DE396E0C9
:101180000E943806C701B6010E94D10E8091140159
:10119000882311F18091F7039091F803892BE1F0F6
:1011A000F8941092390610923A0610923B0610926B
:1011B0003C0610921A0610921B0610921C06109202
:1011C0001D0678940E940B0F6093690470936A0463
:1011D00080936B0490936C048091F7039091F803D3
:1011E0009093680480936704DF91CF91FF90EF9014
:1011F000DF90CF9008956F927F928F929F92AF92DF
:10120000BF92CF92DF92EF92FF920F931F93CF93F3
:10121000DF9380E090E0AAE7B4EC80932B019093F9
:101220002C01A0932D01B0932E018AE590E09093BC
:1012300073048093720440E050E06AE774E44093E2
:101240000501509306016093070170930801909384
:10125000F6038093F5038091D705882321F08091D0
:101260007104882329F08091D905882309F452C09C
:1012700085E090E09093F8038093F7036CEB72E0C5
:1012800080E090E00E9461078091D905882319F0E1
:1012900084E090E03AC00E9472021092D70520913B
:1012A000F4053091F5054091F6055091F7056091F0
:1012B00005017091060180910701909108010E943B
:1012C000BF2587FF0CC084E090E09093F8038093E3
:1012D000F7036CEB72E080E090E00E9461072091E0
:1012E000EC053091ED054091EE055091EF056091D0
:1012F0002B0170912C0180912D0190912E010E9463
:10130000BF2587FF84C083E090E09093F80380932B
:10131000F70388C080917004882309F47FC0E090AF
:101320001B01F0901C0100911D0110911E016090A5
:101330001F0170902001C0902101D09022019301E3
:10134000A601B701C8010E941E2718161CF4C2E0AE
:10135000D0E004C037016801C1E0D0E080902301F3
:1013600090902401A0902501B0902601A501940140
:10137000B301C6010E941E27181614F4C3E0D0E082
:10138000CC0FDD1FCD5CDE4F888199818B359105B7
:1013900014F08D9704C08A35910561F08D96909375
:1013A0007304809372040E94E80568EC70E080E0AA
:1013B00090E03CC020911701309118014091190133
:1013C00050911A01B701C8010E9453256B017C019D
:1013D00020912701309128014091290150912A0143
:1013E000C501B4010E9453259B01AC01C701B601A0
:1013F0000E941E2718163CF484EB90E0909373042F
:101400008093720404C0109273041092720480914D
:101410007204909173040E94E80504C01092F803CE
:101420001092F7036CEB72E080E090E00E9461079D
:101430008091700480937104DF91CF911F910F917F
:10144000FF90EF90DF90CF90BF90AF909F908F90E4
:101450007F906F900895CF93DF93EC0161E08881D6
:101460000E94700E61E08A810E94700E61E08C81A2
:101470000E94700E60E088810E94400E60E08A81C8
:101480000E94400E61E08C810E94400E41E050E0DD
:1014900060E070E0CE01DF91CF910C9438061F938D
:1014A000CF93DF93192FEB01682FCE010E94E12427
:1014B000612FCE010196DF91CF911F910C94E12411
:1014C000F89460E070E080910304909104040E941D
:1014D0004F0A62E070E080910104909102040E9442
:1014E0004F0A64E070E080910C0490910D040E941A
:1014F0004F0A66E070E080911004909111040E9400
:101500004F0A68E070E080910504909106040E9403
:101510004F0A789408950F931F9310926F00809153
:101520000904882309F43DC18091F9039091FA03DD
:1015300005970CF436C18091070481118EC0F89490
:101540002091080440911A0650911B0660911C06D8
:1015500070911D068091390690913A06A0913B0644
:10156000B0913C062223F1F0481B590B6A0B7B0B10
:101570008091FD039091FE03423051056105710594
:101580001CF08F3D910544F021E020930704209149
:10159000FB033091FC031FC003969093FE038093DE
:1015A000FD0325C08C019D01041B150B260B370B79
:1015B0008091FB039091FC03023011052105310558
:1015C0001CF08F3D910574F021E0209307042091D9
:1015D000FD033091FE03821B930B909300048093D4
:1015E000FF0305C003969093FC038093FB0380E107
:1015F00093E00E9438138091FD039091FE030E94B6
:10160000641383E192E00E9438138091FB03909170
:10161000FC030E94641381E293E00E9438136091FE
:10162000390670913A0680913B0690913C060E94E3
:101630003A1383E192E00E94381360911A06709188
:101640001B0680911C0690911D060E943A1381EBA7
:1016500092E00E9403127894C0C0809108043091F7
:10166000FF03209100048823A9F0832F922F97FD78
:1016700001969595879590930D0480930C04209185
:101680000A0430910B04820F931F90930B048093F4
:101690000A0414C0832F922F97FD01969595879584
:1016A000909311048093100420910E0430910F0444
:1016B000820F931F90930F0480930E0485E393E0B1
:1016C0000E9456128DE493E00E9438138091FD032E
:1016D0009091FE030E94641383E192E00E9438130C
:1016E0008091FB039091FC030E946A1387E693E0CC
:1016F0000E9438136091390670913A0680913B063A
:1017000090913C060E943A1383E192E00E943813C4
:1017100060911A0670911B0680911C0690911D061F
:101720000E943A1381EB92E00E94031281E893E059
:101730000E94381380910C0490910D040E94641350
:1017400083E192E00E94381380911004909111047B
:101750000E946A138BE993E00E94381380910A0477
:1017600090910B040E94641383E192E00E9438136D
:1017700080910E0490910F040E946A130E94600AE7
:101780001092FE031092FD031092FC031092FB03D3
:101790001092FA031092F9031092090410926F004C
:1017A0001CC04091390650913A0660913B067091F9
:1017B0003C0680911A0690911B06A0911C06B091E0
:1017C0001D06481759076A077B071CF481E08093C0
:1017D000080485EB93E00E9456128091F9039091E2
:1017E000FA0301969093FA038093F903F894109208
:1017F000390610923A0610923B0610923C0610925F
:101800001A0610921B0610921C0610921D06789460
:1018100080910904882349F08BE89AE090930B01AA
:1018200080930A0181E080936F001F910F910895CA
:101830001F93CF93DF93EC010E94D924182FCE0180
:1018400001960E94D924982F812FDF91CF911F916B
:10185000089580E090E00E94180C90930404809317
:10186000030482E090E00E94180C9093020480939D
:10187000010484E090E00E94180C90930D04809382
:101880000C0486E090E00E94180C90931104809361
:10189000100488E090E00E94180C90930604809356
:1018A00005040895CF92DF92EF92FF920F931F935A
:1018B000CF93DF936C017A018B01C0E0D0E0CE15AD
:1018C000DF0589F0D8016D918D01D601ED91FC9174
:1018D0000190F081E02DC6010995892B11F47E015C
:1018E00002C02196ECCFC701DF91CF911F910F91DC
:1018F000FF90EF90DF90CF900895FC01538D448DC1
:10190000252F30E0842F90E0821B930B541710F0AA
:10191000CF96089501970895FC01918D828D9817B7
:1019200061F0828DDF01A80FB11D5D968C91928DC3
:101930009F5F9F73928F90E008958FEF9FEF0895C0
:10194000FC01918D828D981731F0828DE80FF11D89
:10195000858D90E008958FEF9FEF0895FC01918DA4
:10196000228D892F90E0805C9F4F821B91098F739D
:101970009927089585E095E00E94AE0C21E0892B1F
:1019800009F420E0822F0895FC01848DDF01A80F67
:10199000B11DA35ABF4F2C91848D90E001968F7397
:1019A0009927848FA689B7892C93A089B1898C91B6
:1019B00080648C93938D848D981306C00288F3897C
:1019C000E02D80818F7D80830895EF92FF920F93A9
:1019D0001F93CF93DF93EC0181E0888F9B8D8C8DDB
:1019E000981305C0E889F989808185FD24C0F62E09
:1019F0000B8D10E00F5F1F4F0F731127E02E8C8DA2
:101A0000E8120CC00FB607FCFACFE889F98980818B
:101A100085FFF5CFCE010E94C40CF1CF8B8DFE0166
:101A2000E80FF11DE35AFF4FF0820B8FEA89FB8923
:101A30008081806207C0EE89FF896083E889F98927
:101A400080818064808381E090E0DF91CF911F915D
:101A50000F91FF90EF900895CF93DF93EC01888D65
:101A60008823C9F0EA89FB89808185FD05C0A889A2
:101A7000B9898C9186FD0FC00FB607FCF5CF808128
:101A800085FFF2CFA889B9898C9185FFEDCFCE0172
:101A90000E94C40CE7CFDF91CF91089580E090E0E1
:101AA000892B29F00E94BA0C81110C940000089532
:101AB000833081F028F4813099F08230A1F00895CC
:101AC0008730A9F08830B9F08430D1F4809180005B
:101AD0008F7D03C0809180008F7780938000089570
:101AE00084B58F7702C084B58F7D84BD08958091C1
:101AF000B0008F7703C08091B0008F7D8093B000DD
:101B00000895089585ED8093BC008091BC0084FD0C
:101B1000FCCF1092D2030895E091DD03F091DE0333
:101B2000309729F01092D4031092D30309940895AA
:101B3000AC01E091DB03F091DC033097E1F0909190
:101B4000D6038091D5039817B0F090E0292F30E0AC
:101B50002617370754F4DA01A20FB31F8C91D9016D
:101B6000AC58BB4F8C939F5FF1CF1092D60360931C
:101B7000D503CB010994089508950E94A7271F92C9
:101B80000F920FB60F9211242F933F934F935F93B1
:101B90006F937F938F939F93AF93BF93EF93FF9335
:101BA00085E095E00E94C40CFF91EF91BF91AF9149
:101BB0009F918F917F916F915F914F913F912F9165
:101BC0000F900FBE0F901F9018951F920F920FB697
:101BD0000F9211242F938F939F93EF93FF93E09194
:101BE0001505F09116058081E0911B05F0911C050B
:101BF00082FD12C0908180911E058F5F8F732091AE
:101C00001F05821751F0E0911E05F0E0EB5FFA4FDF
:101C1000958F80931E0501C08081FF91EF919F9168
:101C20008F912F910F900FBE0F901F901895CF930B
:101C3000DF93282F30E0F901E458FF4F8491F90138
:101C4000E255FF4FD491F901E656FF4FC491CC23E2
:101C500091F081110E94580DEC2FF0E0EE0FFF1F64
:101C6000E057FF4FA591B491EC91ED2381E090E016
:101C700021F480E002C080E090E0DF91CF910895F0
:101C80001F93CF93DF93282F30E0F901E458FF4FE3
:101C90008491F901E255FF4FD491F901E656FF4FC7
:101CA000C491CC23C9F0162F81110E94580DEC2F3E
:101CB000F0E0EE0FFF1FEE58FF4FA591B4918FB7E4
:101CC000F894111105C09C91ED2FE095E92302C015
:101CD000EC91ED2BEC938FBFDF91CF911F91089585
:101CE000CF93DF9390E0FC01E255FF4F2491FC017C
:101CF000E656FF4F8491882361F190E0880F991F89
:101D0000FC01E859FF4FC591D491FC01EE58FF4FFB
:101D1000A591B491611109C09FB7F894888120956D
:101D200082238883EC912E230BC0623061F49FB72D
:101D3000F8943881822F809583238883EC912E2B11
:101D40002C939FBF06C08FB7F894E8812E2B288371
:101D50008FBFDF91CF9108953FB7F894809101052F
:101D600090910205A0910305B091040526B5A89BAA
:101D700005C02F3F19F00196A11DB11D3FBFBA2F1D
:101D8000A92F982F8827820F911DA11DB11DBC017D
:101D9000CD0142E0660F771F881F991F4A95D1F742
:101DA00008958F929F92AF92BF92CF92DF92EF925F
:101DB000FF926B017C010E94AC0E4B015C01C114CF
:101DC000D104E104F104F1F00E94AC0EDC01CB017E
:101DD00088199909AA09BB09883E9340A105B10554
:101DE00070F321E0C21AD108E108F10888EE880EEC
:101DF00083E0981EA11CB11CC114D104E104F104BC
:101E000019F7DDCFFF90EF90DF90CF90BF90AF90AC
:101E10009F908F9008952FB7F8946091FD04709172
:101E2000FE048091FF04909100052FBF08951F923A
:101E30000F920FB60F9211242F933F938F939F937E
:101E4000AF93BF938091FD049091FE04A091FF0495
:101E5000B09100053091FC0423E0230F2D3720F4CE
:101E60000196A11DB11D05C026E8230F0296A11DF4
:101E7000B11D2093FC048093FD049093FE04A09375
:101E8000FF04B09300058091010590910205A09197
:101E90000305B09104050196A11DB11D80930105B4
:101EA00090930205A0930305B0930405BF91AF91F1
:101EB0009F918F913F912F910F900FBE0F901F9088
:101EC0001895882321F0813019F4E99801C0E89829
:101ED000E82FF0E0EE0FFF1FE15DFE4F81E89DE08F
:101EE0009183808308951F920F920FB60F92112451
:101EF0002F933F934F935F936F937F938F939F9312
:101F0000AF93BF93EF93FF93E0913101F0913201D2
:101F10000995FF91EF91BF91AF919F918F917F9123
:101F20006F915F914F913F912F910F900FBE0F9046
:101F30001F9018951F920F920FB60F9211242F9396
:101F40003F934F935F936F937F938F939F93AF9341
:101F5000BF93EF93FF93E0912F01F091300109952A
:101F6000FF91EF91BF91AF919F918F917F916F9171
:101F70005F914F913F912F910F900FBE0F901F9047
:101F800018958230E8F4E82FF0E0EE0FFF1FE15DD6
:101F9000FE4F71836083813041F0809169008C7FB6
:101FA000482B40936900E89A089580916900440F96
:101FB000551F440F551F837F482B40936900E99AB2
:101FC00008951F920F920FB60F9211242F933F93F3
:101FD0004F935F936F937F938F939F93AF93BF9331
:101FE000EF93FF938091FB0487FF05C0109285005B
:101FF000109284001BC02091FB04022E000C330BB6
:102000008091D20590E02817390784F48091FB0471
:10201000082E000C990BFC01EE0FFF1F8E0F9F1F67
:10202000FC01E255FA4F808186FD15C08091FB04CA
:102030008F5F8093FB042091FB04022E000C330B76
:102040008091D20590E028173907C4F48091FB04F1
:102050008C3064F113C08091FB04082E000C990BA6
:10206000FC01EE0FFF1F8E0F9F1FFC01E255FA4F80
:10207000808160E08F730E94400ED8CF80918400F1
:1020800090918500049680349C4918F480E49CE982
:1020900005C08091840090918500049690938900FA
:1020A000809388008FEF8093FB043BC020918400D5
:1020B000309185008091FB04082E000C990BFC01E7
:1020C000EE0FFF1F8E0F9F1FFC01E255FA4F81811B
:1020D0009281820F931F9093890080938800809152
:1020E000FB04082E000C990BFC01EE0FFF1F8E0F56
:1020F0009F1FFC01E255FA4F808186FF12C080913C
:10210000FB04082E000C990BFC01EE0FFF1F8E0F35
:102110009F1FFC01E255FA4F808161E08F730E949E
:10212000400EFF91EF91BF91AF919F918F917F9161
:102130006F915F914F913F912F910F900FBE0F9034
:102140001F9018951F920F920FB60F9211242F9384
:102150003F934F935F936F937F938F939F93AF932F
:10216000BF93EF93FF938091B900887F803609F485
:102170009CC068F5883209F45BC090F4803109F4A2
:1021800054C038F4882309F4F6C0883009F44DC0EF
:10219000F6C0883109F44CC0803209F45DC0EFC04C
:1021A000803409F468C048F4803309F455C088339A
:1021B00009F0E5C08093D704D8C0803509F44FC03A
:1021C000883509F45DC0883409F0D9C0D6C0883993
:1021D00009F4C7C0A8F4883709F467C038F4883612
:1021E00009F463C0803709F460C0C9C0883809F4B5
:1021F000B8C0803909F45FC0803809F0C0C05BC046
:10220000803B09F486C038F4803A09F466C0883A05
:1022100009F47FC0B4C0803C09F4A7C0883C09F42D
:10222000A4C0883B09F48AC0AAC08091FA0410C0F7
:102230009091F9048091F804981770F5E091F904F1
:1022400081E08E0F8093F904F0E0E852FB4F80812B
:102250008093BB0085EC86C08093D7048EC0E0914C
:10226000F90481E08E0F8093F9048091BB00F0E0C7
:10227000E852FB4F80839091F9048091F8046EC07E
:10228000E091F90481E08E0F8093F9048091BB0006
:10229000F0E0E852FB4F80838091D10381116DC043
:1022A00081E08093D00384EA61C083E08093D2030D
:1022B0001092D604CFCF8091D604803208F051C05E
:1022C000E091D60481E08E0F8093D6048091BB000C
:1022D000F0E0EA54FB4F8083BDCF85EC8093BC00D7
:1022E0001092D2038091D604803230F4E091D6046B
:1022F000F0E0EA54FB4F10826091D60470E0E09168
:10230000D703F091D80386EB94E009951092D60498
:1023100036C084E08093D2031092B5041092B404C6
:10232000E091D903F091DA0309958091B404811109
:1023300005C081E08093B40410929404E091B50448
:1023400081E08E0F8093B504F0E0EC56FB4F808166
:102350008093BB009091B5048091B404981708F461
:1023600079CF85E88093BC000AC085EC8093BC00DF
:102370001092D20304C01092D7040E94820DFF91E4
:10238000EF91BF91AF919F918F917F916F915F91ED
:102390004F913F912F910F900FBE0F901F90189566
:1023A0004091B404262F30E0240F311D2132310535
:1023B000DCF42091D2032430C9F4FC0180E090E0E9
:1023C000861758F43091B4042191DC01AC56BB4F10
:1023D000A30FB11D2C930196F3CF8091B404680F25
:1023E0006093B40480E0089581E0089582E0089548
:1023F000E0910505F09106050190F081E02D682F30
:1024000085E095E00994009769F0FC0101900020B7
:10241000E9F73197AF01481B590BBC0185E095E006
:102420000C94520C80E090E008958F929F92AF92AE
:10243000BF920F931F93CF93DF93CDB7DEB7A197D2
:102440000FB6F894DEBF0FBECDBF19A2423008F41C
:102450004AE08E010F5D1F4F842E912CA12CB12CD0
:10246000A50194010E942125E62FB901CA0101505E
:102470001109EA3014F4E05D01C0E95CD801EC9385
:10248000232B242B252B61F7C8010E940312A19650
:102490000FB6F894DEBF0FBECDBFDF91CF911F9175
:1024A0000F91BF90AF909F908F900895CF93DF933F
:1024B0000E940312EC0181EB92E00E9403128C0F48
:1024C0009D1FDF91CF9108954F925F926F927F92FF
:1024D0008F929F92AF92BF92CF92DF92EF92FF9234
:1024E0006B017C01B42E9B01AC010E9490278823D4
:1024F00019F084EC93E027C026013701E89477F8BF
:102500002FEF3FEF4FE75FE7C301B2010E94902733
:1025100081110DC02FEF3FEF4FE75FE7C301B2011D
:102520000E94BF2518161CF488EC93E00CC02FEF16
:102530003FEF4FE75FE4C701B6010E941E27181660
:1025400084F48CEC93E0FF90EF90DF90CF90BF90FD
:10255000AF909F908F907F906F905F904F900C9472
:1025600003122FEF3FEF4FE75FECC701B6010E9468
:10257000BF2587FDE6CF20E030E0A901C701B60105
:102580000E94BF2587FF09C08DE20E94F8114C010F
:10259000F7FAF094F7F8F09402C0812C912CA12C5A
:1025A00060E070E080E09FE3AB1441F020E030E0B9
:1025B00040E251E40E94C425A394F6CF9B01AC01F4
:1025C000C701B6010E9453252B013C010E943D2604
:1025D0006B017C010E946C269B01AC01C301B2011E
:1025E0000E9452252B013C014AE0C701B6010E941E
:1025F00015127C01E80CF91CBB2029F08EE20E9428
:10260000F811E80EF91EDB2CDD2021F120E030E08E
:1026100040E251E4C301B2010E9423272B013C0197
:102620000E943D264B01A12CB12C4AE0C501B4010A
:102630000E941512E80EF91EC501B4010E946C2615
:102640009B01AC01C301B2010E9452252B013C0148
:10265000DA94DACFC701FF90EF90DF90CF90BF9070
:10266000AF909F908F907F906F905F904F90089564
:102670000C940312CF92DF92EF92FF92CF93DF93ED
:1026800097FF19C06B017C018DE20E94F811EC01EB
:1026900066277727CB016C197D098E099F094AE0CF
:1026A0000E9415128C0F9D1FDF91CF91FF90EF902C
:1026B000DF90CF9008954AE0DF91CF91FF90EF90A7
:1026C000DF90CF900C941512BC01990F880B990BD9
:1026D0000C943A13CF93DF93BC01990F880B990B9D
:1026E0000E943A13EC0181EB92E00E9403128C0FDE
:1026F0009D1FDF91CF910895CF92DF92EF92FF92CD
:10270000DC01A03282E0B8070CF03EC0B7FD06C085
:10271000A53BB1052CF0A4EBB0E002C0A0E0B0E016
:102720008091FD0528E830E06901C81AD10887FDCD
:10273000D394CC0CDD1CCC0CDD1C0D2C000CEE0855
:10274000FF088091FE0528E532E0281B310987FD4E
:102750003395220F331F220F331FA901330F660B4E
:10276000770B9A01AB012C193D094E095F090E94B4
:10277000192524EB30E040E050E00E94EF24C20E27
:10278000D31EE41EF51ED6019091FC059C3098F5F1
:102790008091FD0548E850E0481B510987FD53959D
:1027A000440F551F440F551FA417B5078CF0809197
:1027B000FE0528E532E0281B310987FD3395220FFD
:1027C000331F220F331FAD012A173B070CF4A90159
:1027D00042505109440F551F2FB7F894892F90E0AC
:1027E000FC01EE0FFF1F8E0F9F1FFC01E255FA4FF9
:1027F000528341832FBFFF90EF90DF90CF900895D9
:102800008F929F92AF92BF92CF92DF92EF92FF9200
:102810000F931F9361E08091D3050E94400E8BE4DB
:1028200090E00197F1F760E08091D3050E94400E9F
:102830008091D5059091D6059927FC01E255FF4F6F
:102840006491FC01E656FF4FE491F0E0EE0FFF1FAC
:10285000E057FF4F8591949100E412E42FE030E0BF
:10286000462F0E94C114611571058105910539F04B
:10287000DC01CB010196A11DB11DBF7003C080E03A
:1028800090E0DC01BC01CD01969587957795679521
:102890000E946C264B015C0123E333E349EE51E4D3
:1028A0000E94C4256B017C016093DA057093DB05FF
:1028B0008093DC059093DD052AE939E144E952E48F
:1028C000C501B4010E94C4256093DE057093DF0545
:1028D0008093E0059093E1052091E8053091E905AA
:1028E0004091EA055091EB05C701B6010E94BF2552
:1028F000181624F081E08093D80502C01092D80504
:102900002091EC053091ED054091EE055091EF05D9
:10291000C701B6010E94BF25181624F081E08093FC
:10292000D70502C01092D7052091F4053091F50526
:102930004091F6055091F705C701B6010E94BF25E9
:10294000181624F081E08093D90502C01092D905B1
:102950006CE370E080E090E00E94D10E6091DA05B7
:102960007091DB058091DC059091DD051F910F9141
:10297000FF90EF90DF90CF90BF90AF909F908F909F
:102980000895CF92DF92EF92FF920F931F93E82F5B
:10299000F92F05C0015011092109310961F1908118
:1029A00096239417B9F305C0015011092109310983
:1029B00011F1908196239413F7CFC12CD12CE12CE7
:1029C000F12C0AC08FEFC81AD80AE80AF80A0C15C9
:1029D0001D052E053F0579F080818623841791F32C
:1029E0006C2D7D2D8E2D9F2D1F910F91FF90EF90BF
:1029F000DF90CF90089560E070E080E090E01F915C
:102A00000F91FF90EF90DF90CF900895CF93DF93D9
:102A100000D000D0CDB7DEB7789484B5826084BD95
:102A200084B5816084BD85B5826085BD85B58160D2
:102A300085BD80916E00816080936E001092810050
:102A4000809181008260809381008091810081600B
:102A500080938100809180008160809380008091CC
:102A6000B10084608093B1008091B0008160809358
:102A7000B00080917A00846080937A0080917A001F
:102A8000826080937A0080917A00816080937A00DE
:102A900080917A00806880937A001092C100E09162
:102AA0001505F091160582E08083E0911105F09103
:102AB00012051082E0911305F091140590E19083C6
:102AC00010921D05E0911905F0911A0586E08083AA
:102AD000E0911705F0911805808180618083E09175
:102AE0001705F0911805808188608083E0911705B3
:102AF000F0911805808180688083E0911705F0913E
:102B0000180580818F7D80839093BA008CE89DE0CA
:102B10009093DA038093D90388E99DE09093D803DA
:102B20008093D7031092D6031092D5031092D4034A
:102B30001092D3031092D20381E08093D1031092BC
:102B4000D00361E082E10E94400E61E083E10E94D7
:102B5000400E8091B9008E7F8093B9008091B900BA
:102B60008D7F8093B90088E48093B80085E48093DA
:102B7000BC008CEB90E09093DC038093DB0383EE4E
:102B800090E09093DE038093DD038AE090E00E9462
:102B9000180C859739F1F89460E070E080E090E0DF
:102BA0000E944F0A62E070E080E090E00E944F0ACD
:102BB00064E070E080E090E00E944F0A66E070E020
:102BC00080E090E00E944F0A68E070E080E090E0D2
:102BD0000E944F0A6AE070E085E290E00E944F0A8E
:102BE000789404C081E691E00E9456120E94290C5C
:102BF000409110015091110120910C0430910D046D
:102C0000240F351F30930B0420930A048091100485
:102C100090911104840F951F90930F0480930E04DC
:102C200083E496E00E942B0A8DE396E00E942B0A33
:102C300061E08091D3050E94700E60E08091D5051F
:102C40000E94700E8091FC058C3008F051C061E04C
:102C500085E00E94700E8091FC05E82FF0E09F0156
:102C6000220F331FE20FF31FE255FA4F9081907C41
:102C7000956090831092FD051092FE056CE00E9415
:102C800095272CE0829FB001112440E050E09A018A
:102C9000260F371FF901EE0FFF1F2E0F3F1FF901FF
:102CA000E255FA4F908196FD16C04F5F5F4F4C3052
:102CB000510569F781110FC01092800082E0809366
:102CC00081001092850010928400B19A80916F006B
:102CD000826080936F00E091FC05F0E0CF01880FE7
:102CE000991FE80FF91FE255FA4F808180648083B5
:102CF0008AE590E00E947C138DEE91E09093360679
:102D00008093350687E492E09093380680933706E7
:102D100060E0809120060E94700E89EE91E0909311
:102D200017068093160683E492E090931906809329
:102D3000180660E0809101060E94700E1091140147
:102D4000112379F087E190E09093030180930201D1
:102D50008EE196E00E9408068FEF95E00E9408063B
:102D60000DC080911301811103C088EB9BE002C06C
:102D700080EF9AE090930301809302011093150174
:102D800061E08DE00E94700E68EB7BE080E090E0F7
:102D90000E94D10E0E940B0F6093120470931304D3
:102DA000809314049093150462E080E10E94700EF9
:102DB00062E081E10E94700E80E10E94170E8C019A
:102DC00081E10E94170E0115110531F4009721F4DD
:102DD00021E020935E040CC010925E0401151105E1
:102DE00039F48130910521F421E020935D040BC07A
:102DF00010925D040130110531F4009721F481E057
:102E000080935C040BC010925C040130110531F416
:102E1000019721F481E080935B0402C010925B046F
:102E200069E170E080E090E00E94D10E8EE4809332
:102E30007C0062E070E080E090E00E94D10E809122
:102E40007A00806480937A0080917A0086FDFCCFBE
:102E5000809178002091790030E0322F2227A9015B
:102E6000330F660B770B9A01AB01282B64EB7BE2E7
:102E700081E190E00E94EF242C3131414105510560
:102E800014F461E001C060E08DE00E94400E80918A
:102E900012018D3209F071C1F8943091F20333239D
:102EA00009F46AC18091DF038093120180911301BC
:102EB000882319F09091E00302C09091E40390936D
:102EC0004704882319F09091E10302C09091E50333
:102ED00090934804882319F09091E20302C09091E6
:102EE000E60390934504882319F08091E30302C020
:102EF0008091E703809346042091E80320931E0409
:102F00008091E903809349048091EA03809330041F
:102F10008091EB03809304019091EC03909334042F
:102F20009091ED03909333049091EE0390932E04CF
:102F30009091EF0390932F049091F00390931D04D0
:102F40002C3309F450C099EA920F933068F1109233
:102F50005E0410924E0410925B0410925904109279
:102F60005C0410925D041092580410925704109261
:102F70005604109255041092540410925304109267
:102F80005204109251041092500410924F04109267
:102F90004D04203321F491E09093130143C0213379
:102FA00019F4109213013EC0223321F491E0909362
:102FB000140138C0233319F41092140133C02433A0
:102FC00041F491E090935E04109240041092090144
:102FD00029C0253331F491E090934E0410924404BB
:102FE00021C02C3321F491E090935A041BC02D335F
:102FF00021F491E090935B0415C02E3331F491E0FD
:103000009093590410921F040DC02F3331F491E0B6
:1030100090935C0410921C0405C0203419F491E0D4
:1030200090935D049FEB920F963030F481E0809393
:103030005804109235041AC0273441F4882351F003
:1030400081E0809357041092360483C0283471F4D1
:10305000811106C081E0809358041092350479C034
:1030600081E0809356041092370473C0293431F400
:1030700081E080935504109238046BC02A3431F4F7
:1030800081E0809354041092390463C02B3431F4EE
:1030900081E08093530410923A045BC02C3421F4F5
:1030A00081E08093520455C02D3441F481E0809337
:1030B000510410923B0410923C044BC02E34A1F4F6
:1030C00081E0809350048091F8059091F905A091DA
:1030D000FA05B091FB058093EC059093ED05A09364
:1030E000EE05B093EF0535C02F3421F481E08093D5
:1030F0004F042FC0243531F481E080931B041092DB
:103100001A0427C0253531F481E080931904109208
:1031100018041FC0263531F481E080931704109203
:10312000160417C0273521F481E080934C0411C0A8
:10313000283521F481E080934B040BC0293521F41C
:1031400081E080934A0405C02F3519F481E0809313
:103150004D041092F203223431F0253421F031E095
:10316000263409F030E030932504275481E02230E2
:1031700008F080E080932404789490911501809168
:103180001401992359F0811113C08EE196E00E9439
:103190002A068FEF95E00E942A060AC0882341F094
:1031A0008EE196E00E9408068FEF95E00E940806E7
:1031B00080915A04882399F1809112018D3279F51A
:1031C0008091490490E090931101809310019093B5
:1031D0000F0180930E0190930D0180930C012091BB
:1031E0000C0430910D04280F391F30930B042093E9
:1031F0000A042091100430911104820F931F9093C0
:103200000F0480930E0410925A0489E292E00E9407
:10321000381380911001909111010E946A138091DE
:103220005B04882341F0809112018D3221F40E94C9
:10323000E7030E94FB0880915904882349F180919B
:1032400012018D3229F580911F0481111DC084E087
:1032500090E09093F8038093F7036CEB72E080E0CA
:1032600090E00E9461070E94E703A3E0B0E0B09302
:10327000F803A093F7036CEB72E080E090E00E940B
:10328000610781E080931F040E94E7030E94FB080E
:1032900080915C04882309F467C2809112018D3209
:1032A00009F062C2B0901301BB2049F000910A04FA
:1032B00010910B0420900E0430900F0408C0009170
:1032C0000C0110910D0120900E0130900F016091C2
:1032D0000304709104046115710559F0BB2049F095
:1032E000072E000C880B990B0E946E266B017C0147
:1032F00007C0C12CE0E8DE2EE2EBEE2EE2E4FE2E6B
:1033000060910104709102046115710559F0BB20B0
:1033100049F0072E000C880B990B0E946E264B017A
:103320005C0107C0812C70E8972E72EBA72E72E427
:10333000B72E80912004909121040E947C136FE0AD
:1033400070E080E090E00E94D10E0E94001420E026
:1033500030E048EC51E40E94BF25209120043091D8
:1033600021043C832B8387FFC6C1B801012E000CCA
:10337000880B990B0E946E262B013C018091130152
:103380004B815C814B3551050CF4CAC0882309F48C
:103390005CC0B101330C880B990B0E946E26A5010D
:1033A00094010E9452256B017C0164EB70E08B81DB
:1033B0009C81681B790B072E000C880B990B0E94CF
:1033C0006E2620E030E044EB52E40E94C4259B01CD
:1033D000AC01C701B6010E942327A50194010E94F8
:1033E00053256B017C0120E030E0A9010E941E27DB
:1033F00020E030E040E05FE387FD05C0C701B60193
:103400000E94532504C0C701B6010E9452250E94A4
:1034100036261B01AB81BC81A23AB1050CF44AC12E
:1034200026E636E646EA5FE3C501B4010E9423279B
:103430000E9436261B012B813C81243B310509F07B
:1034400032C16AE0E62EF12C30C16B817C816A5575
:103450007109072E000C880B990B0E946E266B01D8
:103460007C0120E030E044EB52E40E94C4259B0143
:10347000AC01C301B2010E9423274B015C0120E093
:1034800030E0A9010E941E2720E030E040E05FE329
:1034900087FD05C0C501B4010E94532504C0C501C4
:1034A000B4010E9452250E9436268B0160910201D0
:1034B0007091030177FF02C06F5F7F4F759567952D
:1034C000072E000C880B990B0E946E264B015C01A5
:1034D00020E030E044EB53E4C701B6010E94C4256C
:1034E0009B01AC01C501B4010E9423276B017C0143
:1034F00020E030E0A9010E941E2720E030E040E0FB
:103500005FE387FD05C0C701B6010E94532504C0D3
:10351000C701B6010E9452250E9436267B01D1C008
:10352000882309F453C0A7019601C301B2010E9488
:1035300052254B015C014B815C81BA01550F880B10
:10354000990B0E946E2620E030E044EB52E40E948A
:10355000C4259B01AC01C501B4010E942327A7012A
:1035600096010E9453254B015C0120E030E0A90147
:103570000E941E2720E030E040E05FE387FD05C0A9
:10358000C501B4010E94532504C0C501B4010E94C5
:1035900052250E9436268B016B817C816331710537
:1035A0000CF088C026E636E646EA5FE3C701B601BE
:1035B0000E9423270E9436268B018B819C81892BB8
:1035C00009F07DC04AE0E42EF12C7BC06AE570E092
:1035D000AB81BC816A1B7B0B072E000C880B990BFF
:1035E0000E946E266B017C0120E030E044EB52E447
:1035F0000E94C4259B01AC01C301B2010E94232794
:103600004B015C0120E030E0A9010E941E2720E070
:1036100030E040E05FE387FD05C0C501B4010E94D2
:10362000532504C0C501B4010E9452250E943626CC
:103630008B01609102017091030177FF02C06F5FFF
:103640007F4F75956795072E000C880B990B0E948C
:103650006E264B015C0120E030E044EB53E4C701EF
:10366000B6010E94C4259B01AC01C501B4010E94B2
:1036700023276B017C0120E030E0A9010E941E2776
:1036800020E030E040E05FE387FD05C0C701B60100
:103690000E94532504C0C701B6010E9452250E9412
:1036A00036267B0109C0E12CF12C20E030E041E01E
:1036B00050E00BC0E12CF12C21E030E0F8CFE12C00
:1036C000F12C21E030E040E050E0B80183E496E0E6
:1036D00029833A830E94380629813A81A901B101E0
:1036E0008DE396E00E943806B701FF0C880B990B1A
:1036F0000E94D10E1FC080910001882321F08B8190
:103700009C81429603C08B819C81429790932104B7
:103710008093200440E050E060E070E083E496E0B5
:103720000E94380640E050E060E070E08DE396E0F3
:103730000E9438068091200490912104843B9105D9
:103740004CF01092000124EB30E0309321042093E0
:1037500020040AC0181619063CF081E0809300018D
:10376000109221041092200480915D04882309F4B2
:103770005AC2809112018D3209F055C2F0901301A6
:10378000FF2049F000910A0410910B0420900E04D0
:1037900030900F0408C000910C0110910D01209091
:1037A0000E0130900F0160910304709104046115C3
:1037B000710559F0FF2049F0072E000C880B990B7A
:1037C0000E946E264B015C0107C0812C20E8922EDE
:1037D00022EBA22E22E4B22E609101047091020429
:1037E0006115710559F0FF2049F0072E000C880B78
:1037F000990B0E946E266B017C0107C0C12C90E8DA
:10380000D92E92EBE92E92E4F92E80912204909128
:1038100023040E947C136FE070E080E090E00E943F
:10382000D10E0E9400142B013C0120E030E048EC56
:1038300051E40E94BF2587FFB3C120E030E040E89B
:1038400050E4C301B2010E941E2718160CF0A8C153
:10385000B801012E000C880B990B0E946E262B01DB
:103860003C0140912204509123045C834B8380915E
:1038700013014B3551050CF4B9C0882309F451C02C
:10388000A5019401C301B2010E9452256B017C0184
:1038900064EB70E08B819C81681B790B072E000C18
:1038A000880B990B0E946E2620E030E044EB52E436
:1038B0000E94C4259B01AC01C701B6010E942327C9
:1038C000A50194010E9453256B017C0120E030E0AA
:1038D000A9010E941E2720E030E040E05FE387FD61
:1038E00005C0C701B6010E94532504C0C701B60137
:1038F0000E9452250E9436268B01AB81BC81A23AE0
:10390000B1050CF435C12AE939E949E95FE3C5019C
:10391000B4010E9423270E9436268B01C12CD12C92
:1039200021C16B817C816A557109072E000C880BBF
:10393000990B0E946E266B017C0120E030E044EB85
:1039400052E40E94C4259B01AC01C301B2010E9454
:1039500023274B015C0120E030E0A9010E941E27D3
:1039600020E030E040E05FE387FD05C0C501B40121
:103970000E94532504C0C501B4010E9452250E9433
:1039800036268B016091020170910301072E000C15
:10399000880B990B0E946E264B015C0120E030E001
:1039A00044EB53E4C701B6010E94C4259B01AC015E
:1039B000C501B4010E9423276B017C0120E030E0A7
:1039C000A9010E941E2720E030E040E05FE387FD70
:1039D00005C0C701B6010E94532504C0C701B60146
:1039E0000E9452250E9436266B01C4C0882309F428
:1039F00053C0B101330C880B990B0E946E26A701AE
:103A000096010E9452254B015C012B813C81B9013A
:103A1000330F880B990B0E946E2620E030E044EBB8
:103A200052E40E94C4259B01AC01C501B4010E946F
:103A30002327A70196010E9453254B015C0120E03A
:103A400030E0A9010E941E2720E030E040E05FE363
:103A500087FD05C0C501B4010E94532504C0C501FE
:103A6000B4010E9452250E9436261B014B815C81C5
:103A7000433151050CF07CC02AE939E949E95FE39B
:103A8000C701B6010E9423270E9436261B01C12CC4
:103A9000D12C41E050E070C06AE570E08B819C81E0
:103AA000681B790B072E000C880B990B0E946E2661
:103AB0006B017C0120E030E044EB52E40E94C4251D
:103AC0009B01AC01C301B2010E9423274B015C01A1
:103AD00020E030E0A9010E941E2720E030E040E015
:103AE0005FE387FD05C0C501B4010E94532504C0F2
:103AF000C501B4010E9452250E9436268B016091B7
:103B0000020170910301072E000C880B990B0E9493
:103B10006E264B015C0120E030E044EB53E4C7012A
:103B2000B6010E94C4259B01AC01C501B4010E94ED
:103B300023276B017C0120E030E0A9010E941E27B1
:103B400020E030E040E05FE387FD05C0C701B6013B
:103B50000E94532504C0C701B6010E9452250E944D
:103B600036266B0140E050E0EE24E394F12C06C0D1
:103B7000C12CD12C40E050E0E12CF12CB1018DE3BF
:103B800096E00E943806A701B80183E496E00E94FF
:103B90003806B601DD0C880B990B0E94D10E29C0A6
:103BA00020E030E040E850E4C301B2010E941E274B
:103BB00018167CF420910101809122049091230435
:103BC000222311F0429601C04297909323048093E0
:103BD000220440E050E060E070E083E496E00E9460
:103BE000380640E050E060E070E08DE396E00E942F
:103BF00038068091220490912304843B91054CF077
:103C000010920101A4EBB0E0B0932304A09322042E
:103C10000AC0181619063CF081E080930101109249
:103C200023041092220480915804882309F424C1AB
:103C3000809112018D3209F01FC1809135048111EC
:103C400089C080911401882381F1809134046091AE
:103C5000330470E0BCE08B9F600D711D1124072EB2
:103C6000000C880B990B0E946E262CE53FE842E27F
:103C700050E40E9423276B017C0120E030E0A90181
:103C80000E941E2720E030E040E05FE387FD05C092
:103C9000C701B6010E94532504C0C701B6010E94A6
:103CA00052250E9436268B0102C000E010E01093DE
:103CB00032040093310480912F04209130043CE3BE
:103CC000839FC0011124820F911D40912E0460E159
:103CD0007EE0469F9001479F300D1124820F931F75
:103CE000A8EEB3E08A9F90018B9F300D9A9F300D14
:103CF0001124C901330FAA0BBB0B80932A049093A4
:103D00002B04A0932C04B0932D040E940B0F6093FE
:103D10002604709327048093280490932904B80103
:103D2000110F880B990B0E946E260E94710510924C
:103D3000390610923A0610923B0610923C061092F9
:103D40001A0610921B0610921C0610921D0681E0A6
:103D5000809335048091F7039091F803059749F01B
:103D60008091D705811103C00E94E70302C00E9421
:103D700000141092F8031092F7038091310490918F
:103D80003204892B49F18091F3039091F403092EB9
:103D9000000CAA0BBB0B4091390650913A0660917A
:103DA0003B0670913C06481759076A077B076CF47D
:103DB00040911A0650911B0660911C0670911D06D9
:103DC000481759076A077B0724F125E030E0309354
:103DD000F8032093F7031DC00E940B0F00912604E7
:103DE000109127042091280430912904DC01CB0193
:103DF000801B910BA20BB30B00912A0410912B0492
:103E000020912C0430912D04081719072A073B072D
:103E1000E0F28091F7039091F803059761F08091AB
:103E2000D7058823A9F080912504811111C08091C4
:103E3000240481110DC040E050E060E070E083E4B4
:103E400096E00E94380640E050E060E070E010C06C
:103E50004091480450E06091470470E083E496E0AC
:103E60000E9438064091460450E06091450470E09D
:103E70008DE396E00E94380680915704882311F163
:103E8000809112018D32F1F48091360481110EC0BF
:103E900041E050E05093F8034093F7038091040110
:103EA00090E00E949C0581E0809336046CEB72E008
:103EB00080E090E00E94610765E070E07093F80395
:103EC0006093F70380915604882311F180911201C9
:103ED0008D32F1F48091370481110EC082E090E0C0
:103EE0009093F8038093F7038091040190E00E947F
:103EF0009C0581E0809337046CEB72E080E090E0F9
:103F00000E946107A5E0B0E0B093F803A093F70327
:103F1000809155048823E9F0809112018D32C9F413
:103F200080913804811109C023E030E03093F80318
:103F30002093F70381E0809338046CEB72E080E01B
:103F400090E00E94610745E050E05093F8034093F1
:103F5000F70380915404882381F1809112018D32FE
:103F600061F580913904811112C086E490E00E94CD
:103F70007C1361E070E07093F8036093F70383E0D3
:103F800090E00E949C0581E08093390410C08EE689
:103F900090E00E947C1382E090E09093F80380937D
:103FA000F70383E090E00E949C05109239046CE2D4
:103FB00071E080E090E00E946107809153048823C3
:103FC00081F1809112018D3261F580913A04811165
:103FD00012C08DE290E00E947C13A1E0B0E0B093AB
:103FE000F803A093F7038DE290E00E949C0581E026
:103FF00080933A0410C087E890E00E947C1322E08E
:1040000030E03093F8032093F7038DE290E00E94B4
:104010009C0510923A0468EC70E080E090E00E9409
:10402000610780915204882349F0809112018D32FA
:1040300029F48091040190E00E947C138091510446
:10404000882309F4A6C0809112018D3209F0A1C025
:1040500080913C04811144C00E947202C09005010D
:10406000D0900601E0900701F09008012091F4053E
:104070003091F5054091F6055091F705C701B6015D
:104080000E94BF252091F5033091F60387FF0DC0F4
:1040900045E050E05093F8034093F70381E08093AC
:1040A0003B04C9010E947C1317C0C9010E94E805A6
:1040B000C701B6010E9471051092390610923A06A6
:1040C00010923B0610923C0610921A0610921B06A4
:1040D00010921C0610921D0681E080933C0453C090
:1040E00080913B0481114FC00E9400142091F4057F
:1040F0003091F5054091F6055091F7056091DA058C
:104100007091DB058091DC059091DD050E94BF2553
:1041100087FF0AC065E070E07093F8036093F703CF
:1041200081E080933B042FC0209114018091F30320
:104130009091F403222391F00091390610913A06F0
:1041400020913B0630913C06AC01092E000C660B19
:10415000770B0417150726073707E4F6092E000C1E
:10416000AA0BBB0B40911A0650911B0660911C06CE
:1041700070911D06481759076A077B075CF6109275
:10418000F8031092F7036CEB72E080E090E00E947D
:104190006107809150048823C9F0809112018D320B
:1041A000A9F480E090E0A0EEB0E48093EC05909359
:1041B000ED05A093EE05B093EF058091D705811131
:1041C00003C00E94E70302C00E94001480914F04C4
:1041D0008823D1F0809112018D32B1F440E050E09B
:1041E00060E070E083E496E00E94380640E050E032
:1041F00060E070E08DE396E00E9438066CEB72E0C0
:1042000080E090E00E94D10E80915E04882309F442
:1042100012C180911401882309F40DC1809113010A
:10422000882309F408C1809140048111A1C040E0B5
:1042300050E060E070E083E496E00E94380640E0E1
:1042400050E060E070E08DE396E00E94380660ED9B
:1042500077E080E090E00E94D10E80E180938100C1
:104260001092800084E08093430484E294EF909362
:10427000420480934104909387008093860084E1F8
:104280008093810010926F0010923F0410923E04C0
:1042900010923D0411E0109309041092080410924A
:1042A00007041092400410924404109206041092E5
:1042B0000504109204041092030410920204109258
:1042C000010410920D0410920C041092110410922B
:1042D0001004109200041092FF038091100190913D
:1042E000110190930B0480930A0490930F04809320
:1042F0000E048FEA90E09093FE038093FD03909369
:10430000FC038093FB0340E050E06FEA70E083E43D
:1043100096E00E94380640E050E06FEA70E08DE3DE
:1043200096E00E94380687E791E00E945612F894C2
:104330001092390610923A0610923B0610923C06F3
:1043400010921A0610921B0610921C0610921D065F
:104350007894109340041092FA031092F9038BE8BA
:104360009AE090930B0180930A0110936F0014C0A0
:104370006091FD037091FE0340E050E083E496E01D
:104380000E9438066091FB037091FC0340E050E00E
:104390008DE396E00E9438068091090481114BC09C
:1043A00080910901811147C010920D0410920C04F4
:1043B0001092110410921004109206041092050439
:1043C000109204041092030410920204109201044B
:1043D0000E94290C8EE991E00E94561286EB91E032
:1043E0000E9438138AE090E00E94180C0E946A1321
:1043F00085ED91E00E9438138091050490910604A8
:104400000E946A1384EF91E00E94381380910C049B
:1044100090910D040E94641383E192E00E9438138E
:1044200080911004909111040E946A1381E080939E
:10443000090110925E0480914E04882309F45FC044
:1044400080911401882309F45AC0809113018823B4
:1044500009F455C08091440481113DC080E18093EE
:1044600081001092800084E08093430484E294EF02
:104470009093420480934104909387008093860038
:1044800084E18093810010926F0060910A04709122
:104490000B0440E050E083E496E00E94380660910F
:1044A0000E0470910F0440E050E08DE396E00E940E
:1044B000380668EE73E080E090E00E94D10E21E0C3
:1044C0002093440489E091E090930B0180930A01CA
:1044D00020936F0014C060910A0470910B0440E0B7
:1044E00050E083E496E00E94380660910E047091DB
:1044F0000F0440E050E08DE396E00E943806809182
:104500004D048823C1F0809112018D32A1F44091B5
:10451000480450E06091470470E083E496E00E9414
:1045200038064091460450E06091450470E08DE308
:1045300096E00E94380680914C04882351F18091C6
:1045400012018D3231F589E192E00E94561288EC19
:1045500090E0909311018093100190930F0180934C
:104560000E0190930D0180930C0190930B048093A6
:104570000A0490930F0480930E0410920D0410927D
:104580000C0410921104109210040E94600A109200
:104590004C0480914B04882309F447C08091120198
:1045A0008D3209F042C000911001109111018091EB
:1045B0004904809FB001819F700D1124072E000CCB
:1045C000880B990B0E946E2620E030E048EC52E404
:1045D0000E94C4250E94362620910C0430910D04BF
:1045E000620F731F70930D0460930C04600F711FB2
:1045F0006F3F710509F02CF470930B0460930A046B
:1046000006C08FEF90E090930B0480930A040E9401
:10461000600A10924B0484E292E00E943813809169
:104620000A0490910B040E946A1380914A04882323
:1046300009F447C0809112018D3209F042C0009107
:1046400010011091110180914904809FB001819F58
:10465000700D1124072E000C880B990B0E946E26FA
:1046600020E030E048EC52E40E94C4250E94362647
:104670002091100430911104620F731F7093110484
:1046800060931004600F711F6F3F710509F02CF4E7
:1046900070930F0460930E0406C08FEF90E0909328
:1046A0000F0480930E040E94600A10924A0487E36C
:1046B00092E00E94381380910E0490910F040E94A2
:1046C0006A1380911401809315010E944E0D0C9481
:1046D000DC16109208051092070588EE93E0A0E022
:1046E000B0E08093090590930A05A0930B05B09361
:1046F0000C0521E431E0309306052093050525ECF7
:1047000030E0309312052093110524EC30E0309313
:1047100014052093130520EC30E030931605209308
:10472000150521EC30E0309318052093170522EC95
:1047300030E030931A052093190526EC30E03093D1
:104740001C0520931B0510921E0510921F05109248
:104750002005109221051092A5051092A4058093C2
:10476000A6059093A705A093A805B093A90523E5F6
:1047700031E03093A3052093A20526E030E030938A
:1047800044062093430627E030E03093460620930A
:10479000450628E030E030934806209347062BE09A
:1047A00030E030933E0620933D0629E030E0309320
:1047B000400620933F062AE030E0309342062093E3
:1047C000410610922306109222061092250610929E
:1047D00024061092270610922606109228061092A0
:1047E000290610922A0610922B0680932C0690938D
:1047F0002D06A0932E06B0932F061092300610922D
:10480000310610923206109233061092340610923E
:10481000390610923A0610923B0610923C0620E1AF
:1048200030E030931F0620931E0622E030E03093E4
:10483000210620932006109204061092030610927F
:1048400006061092050610920806109207061092AE
:10485000090610920A0610920B0610920C0680931D
:104860000D0690930E06A0930F06B09310061092BB
:10487000110610921206109213061092140610924E
:10488000150610921A0610921B0610921C06109222
:104890001D0681E190E0909300068093FF0583E080
:1048A00090E090930206809301068091D2058C30AF
:1048B000A0F491E0980F9093D2058093FC0590E0CE
:1048C000FC01EE0FFF1F8E0F9F1FFC01E255FA4FF8
:1048D00088EB9BE09283818303C08FEF8093FC057C
:1048E0001092D7051092D8051092D9051092DA05CA
:1048F0001092DB051092DC051092DD051092DE05AA
:104900001092DF051092E0051092E10588E19BE529
:104910009093E3058093E2058EE090E09093D405B8
:104920008093D3058FE090E09093D6058093D505D2
:1049300080E090E0A6E9B3E48093E4059093E50578
:10494000A093E605B093E70580E090E0A0EFB1E426
:104950008093E8059093E905A093EA05B093EB05F1
:1049600080E090E0A0E7B1E48093EC059093ED0542
:10497000A093EE05B093EF0540E050E060EA70E4EC
:104980004093F0055093F1056093F2057093F305A1
:104990004093F4055093F5056093F6057093F70581
:1049A0008093F8059093F905A093FA05B093FB0561
:1049B0000895F999FECF92BD81BDF89A992780B5E7
:1049C0000895262FF999FECF1FBA92BD81BD20BD53
:1049D0000FB6F894FA9AF99A0FBE01960895052E2B
:1049E00097FB1EF400940E94062557FD07D00E94F5
:1049F000212507FC03D04EF40C94062550954095D4
:104A0000309521953F4F4F4F5F4F0895909580957A
:104A1000709561957F4F8F4F9F4F08950E9443255A
:104A2000A59F900DB49F900DA49F800D911D112402
:104A30000895B7FF0C940E250E940E25821B930B40
:104A40000895A1E21A2EAA1BBB1BFD010DC0AA1FCF
:104A5000BB1FEE1FFF1FA217B307E407F50720F0E7
:104A6000A21BB30BE40BF50B661F771F881F991F62
:104A70001A9469F760957095809590959B01AC01AB
:104A8000BD01CF010895A29FB001B39FC001A39FB4
:104A9000700D811D1124911DB29F700D811D112477
:104AA000911D08955058BB27AA270E946A250C948F
:104AB000E4260E94D62638F00E94DD2620F039F444
:104AC0009F3F19F426F40C94D3260EF4E095E7FBEF
:104AD0000C94CD26E92F0E94F52658F3BA176207E9
:104AE00073078407950720F079F4A6F50C9417272F
:104AF0000EF4E0950B2EBA2FA02D0B01B9019001F9
:104B00000C01CA01A0011124FF27591B99F0593F3C
:104B100050F4503E68F11A16F040A22F232F342F84
:104B20004427585FF3CF469537952795A795F040D2
:104B30005395C9F77EF41F16BA0B620B730B840BE7
:104B4000BAF09150A1F0FF0FBB1F661F771F881F9F
:104B5000C2F70EC0BA0F621F731F841F48F48795F7
:104B600077956795B795F7959E3F08F0B0CF9395E9
:104B7000880F08F09927EE0F9795879508950E9462
:104B8000A92608F481E008950E94D8250C94E42613
:104B90000E94DD2658F00E94D62640F029F45F3F9F
:104BA00029F00C94CD2651110C9418270C94D3267F
:104BB0000E94F52668F39923B1F3552391F3951BD1
:104BC000550BBB27AA2762177307840738F09F5F2E
:104BD0005F4F220F331F441FAA1FA9F335D00E2E9B
:104BE0003AF0E0E832D091505040E695001CCAF708
:104BF0002BD0FE2F29D0660F771F881FBB1F2617CB
:104C000037074807AB07B0E809F0BB0B802DBF01A1
:104C1000FF2793585F4F3AF09E3F510578F00C9470
:104C2000CD260C9418275F3FE4F3983ED4F3869585
:104C300077956795B795F7959F5FC9F7880F911D91
:104C40009695879597F90895E1E0660F771F881F7D
:104C5000BB1F621773078407BA0720F0621B730B30
:104C6000840BBA0BEE1F88F7E09508950E943D264D
:104C70006894B1110C94182708950E94FD2688F0BD
:104C80009F5798F0B92F9927B751B0F0E1F0660F10
:104C9000771F881F991F1AF0BA95C9F714C0B13051
:104CA00091F00E941727B1E008950C941727672F01
:104CB000782F8827B85F39F0B93FCCF38695779580
:104CC0006795B395D9F73EF4909580957095619569
:104CD0007F4F8F4F9F4F0895E89409C097FB3EF494
:104CE00090958095709561957F4F8F4F9F4F992339
:104CF000A9F0F92F96E9BB279395F69587957795B7
:104D00006795B795F111F8CFFAF4BB0F11F460FF76
:104D10001BC06F5F7F4F8F4F9F4F16C0882311F0CE
:104D200096E911C0772321F09EE8872F762F05C0E2
:104D3000662371F096E8862F70E060E02AF09A957D
:104D4000660F771F881FDAF7880F9695879597F972
:104D50000895990F0008550FAA0BE0E8FEEF16160C
:104D60001706E807F907C0F012161306E407F5075F
:104D700098F0621B730B840B950B39F40A2661F0D3
:104D8000232B242B252B21F408950A2609F4A14076
:104D9000A6958FEF811D811D089597F99F6780E883
:104DA00070E060E008959FEF80EC089500240A947D
:104DB0001616170618060906089500240A941216F6
:104DC0001306140605060895092E0394000C11F429
:104DD000882352F0BB0F40F4BF2B11F460FF04C0D6
:104DE0006F5F7F4F8F4F9F4F089557FD9058440F2F
:104DF000551F59F05F3F71F04795880F97FB991F3A
:104E000061F09F3F79F087950895121613061406F6
:104E1000551FF2CF4695F1DF08C016161706180683
:104E2000991FF1CF86957105610508940895E8945E
:104E3000BB2766277727CB0197F908950E94A926FB
:104E400008F48FEF08950E9436270C94E4260E9400
:104E5000D62638F00E94DD2620F0952311F00C9420
:104E6000CD260C94D32611240C9418270E94F526E5
:104E700070F3959FC1F3950F50E0551F629FF001AD
:104E8000729FBB27F00DB11D639FAA27F00DB11DC6
:104E9000AA1F649F6627B00DA11D661F829F22274F
:104EA000B00DA11D621F739FB00DA11D621F839FD6
:104EB000A00D611D221F749F3327A00D611D231FAC
:104EC000849F600D211D822F762F6A2F11249F57FA
:104ED00050409AF0F1F088234AF0EE0FFF1FBB1FFD
:104EE000661F771F881F91505040A9F79E3F5105BC
:104EF00080F00C94CD260C9418275F3FE4F3983E85
:104F0000D4F3869577956795B795F795E7959F5F65
:104F1000C1F7FE2B880F911D9695879597F90895F7
:104F20000E94A926880B990B0895991B79E004C06B
:104F3000991F961708F0961B881F7A95C9F78095D8
:104F40000895EE0FFF1F0590F491E02D099481E084
:0C4F500090E0F8940C94AC27F894FFCF8C
:104F5C00010117005A00007A4401BB00AF00AF00FA
:104F6C00AF002D0101010100007A4400007A4400D9
:104F7C00007A4400007A4400007A4400007AC4812C
:104F8C000D810D8C0073005A0040002800000000B9
:104F9C0000E50C520C7D0C2C0DAE0C8C0CA00C00F6
:104FAC00000000F800E400B800BC0DAF009B008CC2
:104FBC0000466F72637A2056657273696F6E206D4E
:104FCC00617463686564005761726D696E67207502
:104FDC0070206D6F746F727320666F722031352084
:104FEC007365636F6E64732E2E2E2E2E2E003D3D38
:104FFC003D5245504F525420534156454420444154
:10500C0054413D3D3D00736176656420466F72638B
:10501C007A56657273696F6E202020202020202024
:10502C0020203A2000536176656420416E656564EA
:10503C00506F7765722020202020202020202020F7
:10504C00203D2000536176656420506F7765724F68
:10505C006666736574204120262042202020202083
:10506C003D200020616E6420005265736574506FA2
:10507C00776572004C656674204D6F746F722050AA
:10508C006F7765723A20005269676874204D6F74AF
:10509C006F7220506F7765723A20004C65667420F1
:1050AC00506F7765723A2000202020436F756E7424
:1050BC003A20002020204D6F746F7220537065656C
:1050CC00643A200020525053202020002052504D92
:1050DC0000526967687420506F7765723A200053EC
:1050EC0043414E4E494E472E2E2E2E2E2E2E2E2E18
:1050FC002E2E2E2E424547494E0020636D203A201D
:10510C00000D0A005343414E4E494E472E2E2E2E73
:10511C002E2E2E2E2E2E2E2E2E2E2E454E44002092
:10512C00666F727761726400207475726E206C65A4
:10513C0066743A2000207475726E20726967687408
:10514C003A2000207475726E2061726F756E640067
:10515C00206261636B4F757400204272616B650055
:10516C00706F776572204120616E642042203A2076
:10517C000020636F756E746572204120616E64202F
:10518C0042203A20003D3D3D3D3D53544550322098
:10519C00524553554C543D3D3D3D3D3D00506F7780
:1051AC006572412026204220746F2062616C616E12
:1051BC00636520203A200066696E616C20636F7510
:1051CC006E746572204120262042202020203A2037
:1051DC0000506F7765724F666673657420412026A8
:1051EC0020422020202020203D2000506172615060
:1051FC006F7765724120262050617261506F776520
:10520C0072423A20007761726D696E672075702E5C
:10521C002E2E2E006E616E00696E66006F76660033
:00000001FF
